:020000040000fa
:080000000002040000000000f2
:020000040000fa
:04000800fe030000f3
:020000040000fa
:04000c0040040000ac
:020000040000fa
:040010008004000068
:020000040000fa
:040014001e040000c6
:020000040000fa
:040018006004000080
:020000040000fa
:04001c000a060000d0
:020000040000fa
:04002000a004000038
:020000040000fa
:040024000a060000c8
:020000040000fa
:040028000a060000c4
:020000040000fa
:04002c000a060000c0
:020000040000fa
:040030000a060000bc
:020000040000fa
:040034000a060000b8
:020000040000fa
:040038000a060000b4
:020000040000fa
:04003c000a060000b0
:020000040000fa
:04004000d0030000e9
:020000040000fa
:04004400a203000013
:020000040000fa
:040048000a060000a4
:020000040000fa
:04004c000a060000a0
:020000040000fa
:040050000a0600009c
:020000040000fa
:040054000a06000098
:020000040000fa
:040058000a06000094
:020000040000fa
:04005c000a06000090
:020000040000fa
:040060000a0600008c
:020000040000fa
:040064000a06000088
:020000040000fa
:040068000a06000084
:020000040000fa
:04006c000a06000080
:020000040000fa
:040070000a0600007c
:020000040000fa
:040074000a06000078
:020000040000fa
:040078000a06000074
:020000040000fa
:04007c000a06000070
:020000040000fa
:040080000a0600006c
:020000040000fa
:040084000a06000068
:020000040000fa
:040088000a06000064
:020000040000fa
:04008c000a06000060
:020000040000fa
:040090000a0600005c
:020000040000fa
:040094000a06000058
:020000040000fa
:040098000a06000054
:020000040000fa
:04009c000a06000050
:020000040000fa
:0400a0000a0600004c
:020000040000fa
:0400a4000a06000048
:020000040000fa
:0400a8000a06000044
:020000040000fa
:0400ac000a06000040
:020000040000fa
:0400b0000a0600003c
:020000040000fa
:0400b4000a06000038
:020000040000fa
:0400b8000a06000034
:020000040000fa
:0400bc000a06000030
:020000040000fa
:0400c0000a0600002c
:020000040000fa
:0400c4000a06000028
:020000040000fa
:0400c8000a06000024
:020000040000fa
:0400cc000a06000020
:020000040000fa
:0400d0000a0600001c
:020000040000fa
:0400d4000a06000018
:020000040000fa
:0400d8000a06000014
:020000040000fa
:0400dc000a06000010
:020000040000fa
:0400e0000a0600000c
:020000040000fa
:0400e4000a06000008
:020000040000fa
:0400e8000a06000004
:020000040000fa
:0400ec000a06000000
:020000040000fa
:0400f0000a060000fc
:020000040000fa
:0400f4000a060000f8
:020000040000fa
:0400f8000a060000f4
:020000040000fa
:0400fc000a060000f0
:020000040000fa
:040100000a060000eb
:020000040000fa
:040104000a060000e7
:020000040000fa
:040108000a060000e3
:020000040000fa
:04010c000a060000df
:020000040000fa
:040110000a060000db
:020000040000fa
:040114000a060000d7
:020000040000fa
:040118000a060000d3
:020000040000fa
:04011c000a060000cf
:020000040000fa
:040120000a060000cb
:020000040000fa
:040124000a060000c7
:020000040000fa
:040128000a060000c3
:020000040000fa
:04012c000a060000bf
:020000040000fa
:040130000a060000bb
:020000040000fa
:04013400fa040000c9
:020000040000fa
:040138000a060000b3
:020000040000fa
:04013c000a060000af
:020000040000fa
:040140000a060000ab
:020000040000fa
:040144000a060000a7
:020000040000fa
:040148000a060000a3
:020000040000fa
:04014c000a0600009f
:020000040000fa
:040150000a0600009b
:020000040000fa
:040154000a06000097
:020000040000fa
:040158000a06000093
:020000040000fa
:04015c000a0600008f
:020000040000fa
:040160000a0600008b
:020000040000fa
:040164000a06000087
:020000040000fa
:040168000a06000083
:020000040000fa
:04016c000a0600007f
:020000040000fa
:040170000a0600007b
:020000040000fa
:040174000a06000077
:020000040000fa
:040178000a06000073
:020000040000fa
:04017c000a0600006f
:020000040000fa
:040180000a0600006b
:020000040000fa
:040184000a06000067
:020000040000fa
:040188000a06000063
:020000040000fa
:04018c000a0600005f
:020000040000fa
:040190002005000046
:020000040000fa
:040194000a06000057
:020000040000fa
:040198000a06000053
:020000040000fa
:04019c000a0600004f
:020000040000fa
:0401a0000a0600004b
:020000040000fa
:0401a4000a06000047
:020000040000fa
:0401a8000a06000043
:020000040000fa
:0401ac000a0600003f
:020000040000fa
:0401b0000a0600003b
:020000040000fa
:0401b4000a06000037
:020000040000fa
:0401b8000a06000033
:020000040000fa
:0401bc000a0600002f
:020000040000fa
:0401c0000a0600002b
:020000040000fa
:0401c4000a06000027
:020000040000fa
:0401c8000a06000023
:020000040000fa
:0401cc000a0600001f
:020000040000fa
:0401d0000a0600001b
:020000040000fa
:0401d4000a06000017
:020000040000fa
:0401d8000a06000013
:020000040000fa
:0401dc000a0600000f
:020000040000fa
:0401e0000a0600000b
:020000040000fa
:0401e4000a06000007
:020000040000fa
:0401e8000a06000003
:020000040000fa
:0401ec0056050000b4
:020000040000fa
:0401f0000a060000fb
:020000040000fa
:0401f4000a060000f7
:020000040000fa
:0401f8000a060000f3
:020000040000fa
:0401fc000a060000ef
:020000040000fa
:040200000a060000ea
:020000040000fa
:040204000a060000e6
:020000040000fa
:040208000a060000e2
:020000040000fa
:04020c000a060000de
:020000040000fa
:040210000a060000da
:020000040000fa
:040214000a060000d6
:020000040000fa
:040218000a060000d2
:020000040000fa
:04021c000a060000ce
:020000040000fa
:040220000a060000ca
:020000040000fa
:040224000a060000c6
:020000040000fa
:040228000a060000c2
:020000040000fa
:04022c000a060000be
:020000040000fa
:040230000a060000ba
:020000040000fa
:040234000a060000b6
:020000040000fa
:040238000a060000b2
:020000040000fa
:04023c000a060000ae
:020000040000fa
:040240000a060000aa
:020000040000fa
:040244000a060000a6
:020000040000fa
:040248000a060000a2
:020000040000fa
:04024c000a0600009e
:020000040000fa
:040250000a0600009a
:020000040000fa
:040254000a06000096
:020000040000fa
:040258000a06000092
:020000040000fa
:04025c000a0600008e
:020000040000fa
:040260000a0600008a
:020000040000fa
:040264000a06000086
:020000040000fa
:040268000a06000082
:020000040000fa
:04026c000a0600007e
:020000040000fa
:040270000a0600007a
:020000040000fa
:040274000a06000076
:020000040000fa
:040278000a06000072
:020000040000fa
:04027c000a0600006e
:020000040000fa
:040280000a0600006a
:020000040000fa
:040284000a06000066
:020000040000fa
:040288000a06000062
:020000040000fa
:04028c000a0600005e
:020000040000fa
:040290000a0600005a
:020000040000fa
:040294000a06000056
:020000040000fa
:040298000a06000052
:020000040000fa
:04029c000a0600004e
:020000040000fa
:0402a0000a0600004a
:020000040000fa
:0402a4000a06000046
:020000040000fa
:0402a8000a06000042
:020000040000fa
:0402ac000a0600003e
:020000040000fa
:0402b0000a0600003a
:020000040000fa
:0402b4000a06000036
:020000040000fa
:0402b8000a06000032
:020000040000fa
:0402bc000a0600002e
:020000040000fa
:0402c0000a0600002a
:020000040000fa
:0402c4000a06000026
:020000040000fa
:0402c8000a06000022
:020000040000fa
:0402cc000a0600001e
:020000040000fa
:0402d0000a0600001a
:020000040000fa
:0402d4000a06000016
:020000040000fa
:0402d8000a06000012
:020000040000fa
:0402dc000a0600000e
:020000040000fa
:0402e0000a0600000a
:020000040000fa
:0402e4000a06000006
:020000040000fa
:0402e8000a06000002
:020000040000fa
:0402ec000a060000fe
:020000040000fa
:0402f0000a060000fa
:020000040000fa
:0402f4000a060000f6
:020000040000fa
:0402f8000a060000f2
:020000040000fa
:0402fc000a060000ee
:020000040000fa
:040300000a060000e9
:020000040000fa
:040304000a060000e5
:020000040000fa
:040308000a060000e1
:020000040000fa
:04030c000a060000dd
:020000040000fa
:040310000a060000d9
:020000040000fa
:040314000a060000d5
:020000040000fa
:040318000a060000d1
:020000040000fa
:04031c000a060000cd
:020000040000fa
:040320000a060000c9
:020000040000fa
:040324000a060000c5
:020000040000fa
:04032800920500003a
:020000040000fa
:04032c00ce050000fa
:020000040000fa
:040330000a060000b9
:020000040000fa
:040334000a060000b5
:020000040000fa
:100400002f6c22000eff26000e0188000000000065
:10041000000020000000e000020032000001200087
:100420002002880014000700fc0107000000e00023
:1004300003003a00402a2300010020000200370098
:100440000000200001002000810f70000100320038
:100450000f000700000020000000e0000200320052
:10046000000002000000000066150200000000000d
:100470000040da000000fe00400c20000000e00018
:1004800002003200002020009001880000000600d9
:10049000a1028800800478000000eb001f003700f4
:1004a000e284440054a0b4009905ba00e2844400f8
:1004b00054a0b4009906ba00e284440054a0b400e9
:1004c0000006eb00476fde00fd07b200ae018800ba
:1004d000636ce10003003a000ad801000000eb0061
:1004e0000e003700606ce10008003a00004deb00a0
:1004f0000a05e800020039003420ec000af0a000f0
:100500008b05e900f9ff3e00040037006168e10057
:10051000010032000086eb000b00070019c7ba008b
:100520001905ba000e04e00003003a000a00e000da
:10053000dbff3a0000000600fe07b200ae028800b2
:100540008a047800f5ff37000cd0a300e20f4d00bd
:100550001c003b0089027800354dba000a05e8000e
:10056000020039003420ec000af0a0008b05e900fd
:100570000f003200254dba000a05e80002003900dc
:100580003420ec000af0a0008b05e90008003200de
:100590000c00e0000600320015cdba000a05e800a4
:1005a000020039003420ec000af0a0008b05e900bd
:1005b0008984e80054a0b4000b00e000e2ff3a0098
:1005c000000006009902ba00055d78008b05e9007d
:1005d000f7ff3200c82ade00055d78008b05e900d0
:1005e000f3ff32000c00e000f1ff320019ddba0029
:1005f000eeff370052330400000000003e330400d9
:100600000000000026330400000000001a3304003c
:1006100000000000be150400000000004a1604009f
:100620000000000008280400000000003c2804002e
:10063000000000006e28040000000000a028040054
:1006400000000000d428040000000000e828040096
:1006500000000000fc280400000000001029040035
:1006600000000000422904000000000016310400d0
:10067000000000001c3104000000000020310400d4
:100680000000000024310400000000002c340400ad
:10069000000000002e34040000000000303404008c
:1006a0000000000032340400000000003434040074
:1006b000000000003634040000000000f61a0400b8
:1006c00000000000041b040000000000961f04004e
:1006d00000000000f61e040000000000ae1c040034
:1006e00000000000181e040000000000960c04002a
:1006f000000000002e0c040000000000260f040083
:1007000000000000da0f040000000000641504007f
:100710000000000002250400000000000c2404007a
:10072000000000007e24040000000000ca25040030
:1007300000000000ee1f040000000000e41f0400a1
:10074000000000003600f800809fbe00829fbe00bf
:10075000849fbe00869fbe000000fa00014080001a
:1007600000082000008060000000e000050032006a
:10077000e06b220011c0b300014878007e09070039
:1007800000e8a9000080fa004f03be004f02be003f
:100790004f01be004f00be003600f90000400600c9
:1007a0003600f800809fbe00829fbe00849fbe007e
:1007b000869fbe000000fa00014080000004200077
:1007c000008060000000e00005003200fe14070019
:1007d000f06b220011c0b3000148780000c8a900e6
:1007e0000080fa004f03be004f02be004f01be0062
:1007f0004f00be003600f900004006003600f80049
:10080000809fbe00829fbe00849fbe00869fbe0068
:100810000000fa00c028a9000000eb002318070020
:100820000080fa004f03be004f02be004f01be0021
:100830004f00be003600f900004006003600f80008
:10084000809fbe00829fbe00849fbe00869fbe0028
:100850000000fa001a180700c048a9001000200084
:10086000121807000080fa004f03be004f02be00be
:100870004f01be004f00be003600f90000400600e8
:100880003600f800809fbe00829fbe00849fbe009d
:10089000869fbe000000fa00c068a900200020006a
:1008a000021807000080fa004f03be004f02be008e
:1008b0004f01be004f00be003600f90000400600a8
:1008c0003600f800809fbe00829fbe00849fbe005d
:1008d000869fbe000000fa00c088a90030002000fa
:1008e000f21707000080fa004f03be004f02be005f
:1008f0004f01be004f00be003600f9000040060068
:100900003600f800809fbe00829fbe00849fbe001c
:10091000869fbe000000fa00c608a90070002000f3
:10092000e21707000080fa004f03be004f02be002e
:100930004f01be004f00be003600f9000040060027
:100940003600f800809fbe00829fbe00849fbe00dc
:10095000869fbe000000fa002146800000102000a3
:10096000008060000000e00003003200c508a9001c
:10097000c0002000cd17070021468000000028009d
:10098000008060000000e00003003200c5e8a9001c
:1009900080002000c51707002146800000022000cb
:1009a000008060000000e00003003200c4a8a9003d
:1009b00090002000bd1707002046800070006000f6
:1009c0000000e00003003200c488a900a00020005d
:1009d000b617070020468000610060000000e000bc
:1009e00003003200c408a900b0002000af170700c0
:1009f000ffff37003600f800809fbe00829fbe00d8
:100a0000849fbe00869fbe000000fa00f082800036
:100a10000000e00002003200f082800000000100cf
:100a20000868a9000080fa004f03be004f02be0014
:100a30004f01be004f00be003600f9000040060026
:100a40003600f800809fbe00829fbe00849fbe00db
:100a5000869fbe003200f8003400f800100020002d
:100a6000a00188000020200000d0fe000000fa0055
:100a7000a08180000000e00002003200a081800020
:100a8000000001000b48a9000080fa003400f900c2
:100a90003200f9004f03be004f02be004f01be00fe
:100aa0004f00be003600f900004006003600f80096
:100ab000809fbe00829fbe00849fbe00869fbe00b6
:100ac0003200f8003400f80010002000a001880077
:100ad0000020200000d0fe000200fa00c16180006a
:100ae000010f7800f08180000000e0000300320078
:100af000f18180001e007800010001000e28a9008d
:100b00000080fa003400f9003200f9004f03be0003
:100b10004f02be004f01be004f00be003600f9007c
:100b2000004006003600f800809fbe00829fbe0095
:100b3000849fbe00869fbe003200f8003400f8009b
:100b400010002000a00188000020200000d0fe003e
:100b50000200fa00e1618000010f7800008280004d
:100b60000000e00003003200018280001e007800d7
:100b7000010001001808a9000080fa003400f90003
:100b80003200f9004f03be004f02be004f01be000d
:100b90004f00be003600f900004006003600f800a5
:100ba000809fbe00829fbe00849fbe00869fbe00c5
:100bb0003200f8003400f80010002000a001880086
:100bc0000020200000d0fe000200fa00f161800049
:100bd000010f7800108280000000e0000300320066
:100be000118280001e007800010001001828a90071
:100bf0000080fa003400f9003200f9004f03be0013
:100c00004f02be004f01be004f00be003600f9008b
:100c1000004006000040da000000fe000000050071
:100c20008f1fd1000c0007008f87e9000000e00053
:100c300000000600809feb00070007008f87e90097
:100c40000000e00000000600140020003d00370016
:100c5000f4ff2f003b003700889fbe008a9fbe0034
:100c60008c9fbe000404be000605be00809fbe002f
:100c7000829fbe0021000700040678000800be0025
:100c80000a01be001d000700840678004f03be0065
:100c90004f02be008d4f76007fb0970013003300e7
:100ca000f0ff2f008b8f6b0006003b000d066600e7
:100cb0000c00a7000a00370007f0a6001000200073
:100cc0000a003700880f5200898f5a008a0f5b0094
:100cd0008b8f5b00030039001000200001003e00f4
:100ce0000000200007f0a7000000ea004f06be0049
:100cf0004f05be004f04be000000060005ff2700a0
:100d000005826100070032000428e1000100320082
:100d1000240005000600070001003a004400050019
:100d20000408050002000700f9ff3a00140005005e
:100d30006f8261008102700085027100850272007d
:100d400000000600889fbe008a9fbe00841f7800b6
:100d5000170007004f00780011003300f0ff2f004c
:100d6000838f6c0006003b00040565000a00a700a5
:100d70000800370009f0a600100020000800370026
:100d8000820f5400838f5c000300390010002000a4
:100d900001003e000000200009f0a7000000ea006a
:100da0004f05be004f04be000000e000000006003a
:100db0000004be00060007000003be000405be00dc
:100dc0000200be0002000700844f7500000006000c
:100dd000c70ade00f107b200f50fb20008003200ca
:100de000e1cf4200020032000170a00024000500a3
:100df000810f700001003200040805004400050066
:100e0000810f700002003a00140005008502e9001d
:100e10000000400081c04800fcff3b000170a000c2
:040e200024000500a5
:020000040000fa
:100e2400003000000034000000300000001000001a
:100e3400001000000030000000340000003000000a
:100e440000300000003000000034000000340000d6
:100e5400003000000010000000100000003000000e
:100e640000300000001000000010000000300000fe
:100e740000340000003400000030000000300000a6
:100e84000000000002000000010000000400000057
:100e94000200000001000000040000000000000047
:100ea4000000000000000000ffff00000000000040
:100eb400ffff000000000000ffff00000000000032
:100ec4000002000004060000080a00000c0e0000e6
:100ed4001012000014160000181a00001c1e000056
:100ee4002022000024260000282a00002c2e0000c6
:100ef4000101000001360000013a00003c3e000000
:100f04000002000004060000080a00000c0e0000a5
:100f14000101000001160000011a00001c1e00005f
:100f24000101000001260000012a00002c2e00000f
:100f34000101000001360000013a00003c3e0000bf
:100f4400ffff0000960c00002e0c0000260f00008e
:100f5400da0f00006415000000000000000000002b
:100f6400000000000000000000000000000000007d
:100f74000100000000260000000000000000000046
:100f84004e6f000076200000313700002032000050
:100f94003032000030310000303a000033340000b9
:080fa4003a30000038000000a3
:020000040000fa
:100fac001800fa00889fbe008a9fbe008c1f780034
:100fbc0000067800f4af9f0085b79f0096b79f009e
:100fcc00a7b79f002c709000ef4060000068a30052
:100fdc000b003200e4cf50003b003200e8cf500051
:100fec004e0032000046eb000c4078004f067800b3
:100ffc004f05be004f04be000080fa000000060042
:10100c000058a30018003200e2cf500067003200f5
:10101c008c003e00e1cf5000f2ff3a008c6990004a
:10102c000c6090006fda97003c299000e10f5100a2
:10103c00250132000046eb0080cf5100eaff34005e
:10104c0001467800844f5000e6ff35000c407800d4
:10105c004f0678004f05be004f04be000080fa001a
:10106c0000000600e6ff3700e2cf500062003200bd
:10107c00a6003e00e1cf5000daff3a008c699000e8
:10108c000c6090006fda97003c299000e10f510042
:10109c00000132000046eb0080cf5100d2ff360039
:1010ac0001467800844f5000ceff39000c40780088
:1010bc004f0678004f05be004f04be000080fa00ba
:1010cc0000000600ceff37004c109000dc109000a2
:1010dc000c1490009c1490007fad97008fb5970076
:1010ec003c2e9000e10f5600870132000801be0033
:1010fc00d4fe07000000e000baff34001cc0b300af
:10110c000801be000a00be00ccfe07000000e00093
:10111c00b5ff34000046eb00b3ff37004c109000d5
:10112c00dc1090006c119000fc1190000c149000dd
:10113c009c1490002c159000bc1590007faa970071
:10114c008fb297001fb39700afb39700b4b79f004f
:10115c00c5b79f00d6b79f00e7b79f003c2e900005
:10116c00e10f5600530132000802be000a03be0014
:10117c00adfe07000000e0009aff34001cc0b30075
:10118c000802be000a03be003fb09700cfb0970024
:10119c005fb19700efb197009efe07000000e000e2
:1011ac0091ff34000046eb008fff37004c1190008c
:1011bc000c109000ffa99700bc289000e18f500004
:1011cc00db0032000046eb00800f510086ff34003c
:1011dc001cc0b300830f500082ff35000c40780018
:1011ec004f0678004f05be004f04be000080fa0089
:1011fc000000060082ff37004c1190000c1090008c
:10120c00ffa99700bc289000e18f5000bb00320072
:10121c000046eb00800f510073ff36001cc0b3007a
:10122c00830f50006fff39000c4078004f06780098
:10123c004f05be004f04be000080fa0000000600ff
:10124c006fff3700e4cf50007a003200e8cf500037
:10125c0064ff3a004c149000dc1490006c15900064
:10126c00fc159000f8b79f0089bf9f009abf9f00a4
:10127c00abbf9f000c1090009c1090002c119000a4
:10128c00bc119000b4b79f00c5b79f00d6b79f00a4
:10129c00e7b79f00bc2a9000e18f5200ea003200b1
:1012ac000046eb007fb497008fbc97001fbd9700e2
:1012bc00afbd97000040e10001c8e10002d0e100a1
:1012cc0003d8e10048ff34001cc0b3003fb29700c4
:1012dc00cfb297005fb39700efb397000400e10023
:1012ec000588e1000690e1000798e1003dff35001c
:1012fc000c4078004f0678004f05be004f04be002e
:10130c000080fa00000006003dff3700e4cf5000db
:10131c0030003200e8cf500032ff3a004c149000fd
:10132c00dc1490006c159000fc159000f8b79f0031
:10133c0089bf9f009abf9f00abbf9f000c1090000d
:10134c009c1090002c119000bc119000b4b79f0021
:10135c00c5b79f00d6b79f00e7b79f00bc2a900087
:10136c00e18f52009d0032000046eb007fb49700e5
:10137c008fbc97001fbd9700afbd97000040e100e8
:10138c0001c8e10002d0e10003d8e10016ff3600ed
:10139c001cc0b3003fb29700cfb297005fb3970069
:1013ac00efb397000400e1000588e1000690e1002e
:1013bc000798e1000bff39000c4078004f067800cd
:1013cc004f05be004f04be000080fa00000006006e
:1013dc000bff37004c129000dc1290000c109000a8
:1013ec009c1090007fab97008fb397003c29900026
:1013fc00e10f51006a0032000046eb00800f5200f2
:10140c00818f5a00f8fe36001cc0b300860f5000c6
:10141c00878f5800f3fe39000c4078004f06780097
:10142c004f05be004f04be000080fa00000006000d
:10143c00f3fe37004c129000dc1290000c10900060
:10144c009c1090007fab97008fb397003c299000c5
:10145c00e10f5100430032000046eb00800f5200b8
:10146c00818f5a00e0fe34001cc0b300860f500080
:10147c00878f5800dbfe35000c4078004f06780053
:10148c004f05be004f04be000080fa0000000600ad
:10149c00dbfe37000046eb0080cf5100d2fe31005e
:1014ac0002467800844f5000cefe3e000c4078007f
:1014bc004f0678004f05be004f04be000080fa00b6
:1014cc0000000600cefe37000046eb0080cf510036
:1014dc00c5fe3d0002467800844f5000c1fe3c0022
:1014ec000c4078004f0678004f05be004f04be003c
:1014fc000080fa0000000600c1fe37000046eb0039
:10150c00800f5100b8fe310001467800830f500067
:10151c00b4fe3e000c4078004f0678004f05be002c
:10152c004f04be000080fa0000000600b4fe370035
:10153c000046eb00800f5100abfe3d0001467800e9
:10154c00830f5000a7fe3c000c4078004f0678003b
:10155c004f05be004f04be000080fa0000000600dc
:10156c00a7fe37000046eb00800f5200818f5a0017
:10157c009dfe3d0002467800860f5000878f580074
:10158c0098fe3c000c4078004f0678004f05be00da
:10159c004f04be000080fa000000060098fe3700e1
:1015ac000046eb00800f5200818f5a008efe3100f6
:1015bc0002467800860f5000878f580089fe3e0047
:1015cc000c4078004f0678004f05be004f04be005b
:1015dc000080fa000000060089fe37000046eb0090
:1015ec007fb497008fbc97001fbd9700afbd9700cd
:1015fc000040e10001c8e10002d0e10003d8e100a5
:10160c0079fe3100054678003fb29700cfb29700c3
:10161c005fb39700efb397000400e1000588e10089
:10162c000690e1000798e1006efe3e000c40780049
:10163c004f0678004f05be004f04be000080fa0034
:10164c00000006006efe37000046eb007fb49700ea
:10165c008fbc97001fbd9700afbd97000040e10005
:10166c0001c8e10002d0e10003d8e1005efe3d00bc
:10167c00054678003fb29700cfb297005fb3970052
:10168c00efb397000400e1000588e1000690e1004b
:10169c000798e10053fe3c000c4078004f067800a0
:1016ac004f05be004f04be000080fa00000006008b
:1016bc0053fe37000802be000a03be0055fd0700aa
:1016cc000000e00047fe3d000802be000a03be0019
:1016dc003fb09700cfb097005fb19700efb1970084
:1016ec0051fd07000000e0003efe35000c40780084
:1016fc004f0678004f05be004f04be000080fa0074
:10170c00000006003efe37000801be004bfd07003e
:10171c000000e00033fe3d000801be000a00be00e0
:10172c0048fd07000000e0002efe35000c4078005c
:10173c004f0678004f05be004f04be000080fa0033
:10174c00000006002efe37000001eb000000e00058
:10175c0002003a00020078000000060090017800b8
:10176c00818f51000c0032000300e000f9ff3200c1
:10177c00640140000200780092017800818f5100d2
:10178c0005003200640141000300e000f9ff3a005b
:10179c0000000500f1ff37000001eb000300e00042
:1017ac00ecff32001000900000000600ebff370049
:1017bc00efc06000e2cf5000180032000700360086
:1017cc00e4cf50001c003200e8cf50000d00320076
:1017dc000400be000601be0000000600e1cf500070
:1017ec00fbff3a00104278000482fb008002eb0001
:1017fc006033b8000400be000601be000000060005
:10180c00f6ff37003002be002003be000400be000d
:10181c000601be0000000600f0ff37001002780041
:10182c008002eb006033b8000400be000601be006d
:10183c0000000600e9ff37001002be006033b8005c
:10184c000400be000601be0000000600e3ff3700e6
:10185c000088eb0080007800f1014000700240002d
:10186c000001eb008028eb008069eb00848f5000b6
:10187c00fbff3a0041062100510898006022b80095
:10188c006033b800041098001510980026109800ca
:10189c003710980044109800551098006610980066
:1018ac00771098000218980022709800221898005f
:1018bc006022b80034189800451898008040eb005e
:1018cc002178980032789800621898007218980065
:1018dc000220980022c098002420980035209800ff
:1018ec00442098005520980042c898007420980015
:1018fc000528980082382100030020001228980047
:10190c0023289800110020003128980062089800c4
:10191c007308980011838000c0089800000006002e
:10192c000800fa00881f780000047800281890003e
:10193c00e60f500014003e00e50f50003000390057
:10194c00a87090000818900099ff07000203be00d1
:10195c000002be00b0bf9f00c1bf9f00d2bf9f005e
:10196c00e3bf9f00080078008dfd07000004e00035
:10197c00f900320040002000201c98004f04780031
:10198c000080fa0000000600e70f500080003200d3
:10199c00e80f5000f9ff3a0078189000e818900012
:1019ac000001e800721c9800810f5000f3ff390011
:1019bc000000eb00701c9800287890000080fb0061
:1019cc008000eb0048219000d821900000004100dd
:1019dc00818049004024980051249800e00f500069
:1019ec00e08f5800e5ff350020002000201c9800f7
:1019fc004f0478000080fa0000000600e2ff370078
:101a0c00e20f5000a0003200e40f5000de00320064
:101a1c00e10f5000d9ff3a0078189000e8189000b8
:101a2c000001e800721c9800810f50002e00390054
:101a3c000000eb00701c980038199000c819900039
:101a4c00287890000080fb008000eb000000410033
:101a5c008180490084382100840f5000e08f5800a9
:101a6c00040036006033b800361c9800471c980000
:101a7c006011b8008043eb008782fb000040eb0054
:101a8c000503e800f282420006034300060344000b
:101a9c0085024400d8089000828040000082fb0040
:101aac00160242009448780061014100e08149002f
:101abc00321c9800431c98000040e800954f5000e1
:101acc00f4ff39008743e8003878900080cf53004a
:101adc00e9ff39007820900088289000820f500090
:101aec00838f5800bc003600a87090000818900036
:101afc002fff07000203be000002be00b0bf9f0014
:101b0c00c1bf9f00d2bf9f00e3bf9f0008007800b9
:101b1c0023fd07000004e0008f00320048c890004d
:101b2c000004e0008c00320028209000b8209000c7
:101b3c00e00f5000e08f5800aa00350038189000d4
:101b4c00c8189000e00f5000e08f5800b000320031
:101b5c00781990000200e000b4003a002879900057
:101b6c000281fb008001eb000200500083805800d2
:101b7c00402498005124980070002000201c9800ec
:101b8c004f0478000080fa00000006007eff37004a
:101b9c0078189000e81890000001e800721c98007a
:101bac00810f500075ff39000000eb00701c98008d
:101bbc0038199000c8199000287890000080fb001c
:101bcc008000eb0000004100818049008438210036
:101bdc00840f5000e08f5800040036006033b800ca
:101bec00361c9800471c98006011b8008043eb002d
:101bfc008782fb000040eb000503e800f282420004
:101c0c00060343000603440085024400d8089000f4
:101c1c00828040000082fb0016024200944878004b
:101c2c0061014100e0814900321c9800431c98007e
:101c3c000040e800954f5000f4ff39008743e8005e
:101c4c003878900080cf5300e9ff3900482090008d
:101c5c00d820900002015000838158002820900069
:101c6c00b8209000800f5100818f590050003e0029
:101c7c000000eb00201c98004f0478000080fa0054
:101c8c000000060040ff370078189000e81890001c
:101c9c000001e800721c9800810f500027003900e9
:101cac000000eb00701c980038199000c8199000c7
:101cbc008043eb008782fb000040eb000503e8004b
:101ccc00f2824200060343000603440085024400ee
:101cdc00d8089000828040000082fb00160242006f
:101cec009448780061014100e0814900321c980061
:101cfc00431c98000040e800954f5000f4ff390059
:101d0c008743e8003878900080cf5300e9ff390012
:101d1c00287890000080fb008000eb00020140005e
:101d2c008381480080382100800f5100e08f5900da
:101d3c00020036000000eb00201c980008209000e8
:101d4c000000e800002498004f0478000080fa009e
:101d5c00000006000cff37003fb89700cfb8970083
:101d6c005fb99700efb99700401498005114980090
:101d7c0062149800731498004f0478000080fa00e5
:101d8c000000060000ff3700082090000000e8006b
:101d9c0000249800781890000000e800701c98004f
:101dac004f0478000080fa0000000600f6fe3700b1
:101dbc00182a9000a82a90000201420083814a0050
:101dcc00820f5000838f5800ecfe39000000eb00ae
:101ddc00201c9800a8ff370010c0b30040cc98001e
:101dec0041ff370040249800512498006033b8001c
:101dfc00361c9800471c980080002000201c98007e
:101e0c004f0478000080fa0000000600defe370068
:101e1c00287890000080fb008000eb0018299000cf
:101e2c00a82990000000510081805900402498009e
:101e3c005124980070002000201c980050ff37009f
:101e4c004071900082487800307a9000944098005d
:101e5c0040799000a2409800507a9000b4409800cd
:101e6c0060719000c240980030199000c019900029
:101e7c00481add004811de0002017200c819de00ac
:101e8c00d240980000799000e2409800107a9000bf
:101e9c00f440980020599000824898005009900016
:101eac00cf91de00481add004811de0002017200fd
:101ebc00c819de009248980050099000cf91de00be
:101ecc00a348980050099000cf91de004819de001d
:101edc00b248980040c19000c24898002021900060
:101eec00b0219000481add004811de00020172009a
:101efc00d248980060c19000e248980070c29000ef
:101f0c00f448980000c9900082509800402190003d
:101f1c00d0219000481add004811de000201720049
:101f2c009250980020c99000a250980030ca90009e
:101f3c00b450980020d19000c25098001029900005
:101f4c00a0299000481add004811de000201720041
:101f5c00c819de00d250980040d19000e250980091
:101f6c0050d29000f450980040599000825898003c
:101f7c0060099000f0099000481add004811de005d
:101f8c0002017200c819de00925898006059900046
:101f9c00a258980070589000b058980020c8b30010
:101fac00c0589800d00105004f02b000889fbe00b9
:101fbc008a9fbe008c9fbe008e1f78000004be005e
:101fcc0082d79f001ec0b300e34f5100bd00360006
:101fdc00090578005a407800e84f5000b9003e00df
:101fec000004e000b70032000000eb00201c980059
:101ffc008040eb00307c9800002498006011b80001
:10200c00321c9800431c9800b9419000c819dd009f
:10201c00294090000080fb0000804100601c98006b
:10202c00701c98006022b8006033b800441498000b
:10203c00551498006614980077149800217c980029
:10204c0020c0b30020c4980041cc98006022b80096
:10205c0044249800552498001a04e0001d02320014
:10206c004bc0b30081467800833821000b46e80052
:10207c000b80fb000080440010477800e14f5700b4
:10208c00f6003200960031000d87fb000c86fb0039
:10209c000e00e80000004000000044000c864400e4
:1020ac008c00e8001182fb008002eb00482bdd0065
:1020bc00c823de00870373004823dd001c82fb006d
:1020cc008002eb00040843004c4090000e074400d3
:1020dc00205798002879900002414000227c9800fb
:1020ec00a8c0900000c0400020c498000281fb00f2
:1020fc00050009008201d80001805100cf80de006c
:10210c00102c9800212c9800e6c545008d46e8005f
:10211c009acf1600d5ff3e008b80fb008b45e80064
:10212c000b80fb008b46e8008180440091457800d1
:10213c002b7498000080440010467800e14f560044
:10214c00f8013200220131000d80fb0000804400b8
:10215c008000e8001182fb008002eb00482bdd00c0
:10216c00c823de00870373004823dd008080e8006d
:10217c001182fb008002eb00c022dd000400200075
:10218c000603420087834a001082fb008002eb00aa
:10219c000600420087804a00001c980064c7460075
:1021ac00efc66500e2cf5600050232001f013e006b
:1021bc00e1cf56004e003a008e81fb008381440033
:1021cc00134278000482fb008002eb006033b800fd
:1021dc0004149800151498002614980037149800cd
:1021ec000b04e0000f013500287090000054a00093
:1021fc0020749800e44547008b80fb0081804400ec
:10220c000100e8001082fb008002eb00482bdd008f
:10221c00c823de00870373004823dd000180e8003b
:10222c001082fb008002eb00c022dd0004002000c5
:10223c000603420087834a001182fb008002eb00f8
:10224c000603420087834a00e38040001180fb00b4
:10225c008000eb00c802dd000400200006004200f4
:10226c0087804a0020249800312498009d0f070095
:10227c0070249800012c980064c045000080fb007d
:10228c00008044001080fb00302c9800e5c5450010
:10229c008fd097008bcf5000c00036000b80fb0016
:1022ac000080440012c0b300904f1100bb003200fc
:1022bc001a4578003a7c98001980fb00201c980085
:1022cc000047eb000e4078004f0778004f06be0029
:1022dc004f05be004f04be004f02b10000000600c7
:1022ec00e24f570034003200e34f57000900320030
:1022fc001ec0b3000e4078004f0778004f06be009a
:10230c004f05be004f04be004f02b1000000060096
:10231c00f3ff37000c86fb00108380001000780060
:10232c000c864400e30046001181fb004811dd00df
:10233c008c80e8009180fb0081004100a3b79f00d6
:10234c0001fd0700afb197000000e000e8ff32008c
:10235c000d87fb008e00e800818040008100440066
:10236c00900878004c4090000e07440020579800cd
:10237c002879900002414000227c9800a8c090006f
:10238c0000c0400020c498000281fb000500090039
:10239c008201d80001805100cf80de00102c980003
:1023ac00212c9800e6c545008d46e8009acf160012
:1023bc002eff3e0058ff37000c86fb001083800078
:1023cc00100078000c864400e30046001181fb00ed
:1023dc004811dd008c80e8009180fb0081004100f9
:1023ec00a3b79f00d8fc0700afb197000000e00036
:1023fc00bfff32000d87fb008e00e800818040009b
:10240c0081004400800878004c4090000e07440086
:10241c00205798002879900002414000227c9800b7
:10242c00a8c0900000c0400020c498000281fb00ae
:10243c00050009008201d80001805100cf80de0028
:10244c00102c9800212c9800e6c545008d46e8001c
:10245c009acf160005ff3e002fff37000c86fb00bd
:10246c000c8644000c007800b0427800a5df9f0079
:10247c0010407800a0d79f001283800012007800d3
:10248c00e30046001182fb004822dd008c80e8004e
:10249c009180fb008100420092b79f00a3b79f0080
:1024ac00a9fc07001fb19700afb197000000e00036
:1024bc0084ff320090007800120190001202780024
:1024cc00848f50000c0032000400e0007dff3200cd
:1024dc00ec0241000501780015027800848f500051
:1024ec0005003200ec8242000400e000f9ff3a00e3
:1024fc001ec0b3007fff37000400e0007cff3200f9
:10250c000200e0007aff32000d87fb002fd397000a
:10251c004832dd00afdb97008780fb008100420072
:10252c0052019000a3b79f00020001008e00e8004a
:10253c00818040008100440080087800afb1970092
:10254c000000e0006aff32004c4090000e0744008f
:10255c00205798002879900002414000227c980076
:10256c00a8c0900000c0400020c498000281fb006d
:10257c00050009008201d80001805100cf80de00e7
:10258c00102c9800212c9800e6c545008d46e800db
:10259c009acf1600b5fe3e00dffe3700a870900003
:1025ac000818900082fc0700401498005114980001
:1025bc0062149800731498001a4578003a7c9800bd
:1025cc001980fb00201c98000047eb003dff3700f2
:1025dc00e24f5600c3003200e34f560044ff3a006e
:1025ec008d80fb00108380001000780081804400f7
:1025fc00e38140009381fb00c819dd008180e80075
:10260c009180fb00818041004ffc07001ec0b3008d
:10261c000000e0002bff320010007800001c980036
:10262c00defe37008ec54600f3fe3700e4cf5600c1
:10263c00f1003200e8cf56002dff3a008e81fb00ee
:10264c008381440083bf9f00134690000c80fb00e5
:10265c008000eb006011b800c819dd004812de00e4
:10266c00830172004811dd00480ade00020172008d
:10267c00c808dd004802de00810072004800dd0061
:10268c00d0af9f00e1af9f00f2af9f0083b79f00d8
:10269c008fba9700254090000082fb008002eb006f
:1026ac006033b80086037800050378008402780054
:1026bc000002eb005fa89700efa897007fa9970096
:1026cc008fb1970004004000858048000601490046
:1026dc008781490090af9f00a1af9f00b2af9f00d0
:1026ec00c3af9f008fb89700114278000480fb00a5
:1026fc008000eb006011b8001faa9700afaa9700ea
:10270c003fab9700cfab97000002420081824a009a
:10271c0002034b0083834b00d4af9f00e5af9f00b7
:10272c00f6af9f0087b79f008fba97003542900095
:10273c000480fb008000eb006011b800c811dd00c4
:10274c00480ade00830172004809dd004802de0001
:10275c0002017200c800dd000000eb005faa9700c8
:10276c00efaa97007fab97008fb397000000420051
:10277c0081804a0002014b0083814b0090af9f0087
:10278c00a1af9f00b2af9f00c3af9f008fba97005d
:10279c00454290000480fb008000eb006011b80003
:1027ac000001be006000b8001faa9700afaa9700f6
:1027bc003fab9700cfab97000000420081804a00ee
:1027cc0002014b0083814b00d0af9f00e1af9f0013
:1027dc00f2af9f0083b79f008fba970055429000cd
:1027ec000480fb008000eb006011b800c809dd001c
:1027fc004802de00830172004801dd006000b80071
:10280c005faa9700efaa97007fab97008fb3970052
:10281c000000420081804a0002014b0083814b0082
:10282c0090af9f00a1af9f00b2af9f00c3af9f00be
:10283c008fba9700654290000480fb008000eb008b
:10284c006011b800800178000001eb006000b80056
:10285c001faa9700afaa97003fab9700cfab97008a
:10286c000000420081804a0002014b0083814b0032
:10287c00c0b79f00d1b79f00e2b79f00f3b79f008e
:10288c008fba9700f54190000382fb008002eb00a9
:10289c006033b800c823dd000003eb006022b800f1
:1028ac004fb09700dfb097006fb19700ffb1970062
:1028bc0004004000858048000601490087814900da
:1028cc0000149800111498002214980033149800e6
:1028dc0043fe37006dc0b3005000200041002000c3
:1028ec0011fe37008d80fb001083800010007800f3
:1028fc0081804400e38140009381fb00c819dd0016
:10290c008180e8009180fb00818041008efb0700f4
:10291c001ec0b3000000e0006afe3200001c9800ec
:10292c001efe37008d80fb00818044000100780082
:10293c00b0417800104278001b8380001b007800a7
:10294c00e38240009582fb00c82add008180e8000c
:10295c009180fb0081804200a3b79f0094b79f0039
:10296c0079fb07000c477800afb197001fb29700b6
:10297c000000e00053fe3200900378001b0390002f
:10298c0096027800858f53003d0032000500e00070
:10299c004cfe3200ec0043000fd19700010378008d
:1029ac0091027800858f530034003200ec80400097
:1029bc000500e000f9ff3a001ec0b3004dfe3700e1
:1029cc008e81fb00838144000302e8001482fb002b
:1029dc004822dd009381fb00030242008002eb00e1
:1029ec006033b8000414980015149800261498004d
:1029fc0037149800fafd37008e81fb008381440068
:102a0c000302e8001482fb008002eb00482bdd007f
:102a1c00c823de00870373004823dd000382e8002f
:102a2c001482fb008002eb00c022dd0004002000b9
:102a3c000603420087834a001382fb008002eb00ee
:102a4c000603420087834a00e38141001382fb00a6
:102a5c008002eb00c822dd000400200006024200c8
:102a6c0087824a006033b80004149800151498004b
:102a7c002614980037149800d9fd370082d79f0090
:102a8c001ec0b3000500e0000efe32000600e000a0
:102a9c000cfe3200c820dd008381fb0083804000e7
:102aac00d601900003000100001c98000000e0001b
:102abc0004fe3200a8759000b8fd37000000050038
:102acc000000fa00520f070016020700ca0c07009c
:102adc000300370000000000010037000000000078
:102aec00a80c0700020e0700830c07000004e0008e
:102afc000700320000808000610060000000e000f0
:102b0c0002003a002b010700010037000502070004
:102b1c00860c07000004e000eeff3200008080000d
:102b2c0022800a000000000000c0ea006140600042
:102b3c000080fb00610060004200dd00018080002d
:102b4c000120a1000100700000808800008080003e
:102b5c00610060000000e000e0ff3200f1010700be
:102b6c00803e20000a02070012010700dcff37003c
:102b7c000000fa0000808000610060000000e000ae
:102b8c003f00320000808000620060000000e00026
:102b9c000d00320000808000610060000000e00049
:102bac000900320060818000d01d8800d01d80009b
:102bbc00201c8800201c8000701a88005080800027
:102bcc000000e80050808800508080000000e80081
:102bdc005080880051808000c0828000808f50001f
:102bec00010036007a000700908080000000e800a9
:102bfc009080880090808000e30f50002000360009
:102c0c0028d0bf008080fb00608080000001400065
:102c1c00a05622000000410010007800808068005f
:102c2c006080800000014000a0552200000041009f
:102c3c0010007800008060000000e000030032000b
:102c4c000fd0bf000004a0000ff0b7000fd0bf00e2
:102c5c000080fb00a157220000804000104078004b
:102c6c000ff0b7000fd0bf000080fb0061006000c8
:102c7c00004078000004e00001003200540007001e
:102c8c000080fa00000006000000fa009b0d07000f
:102c9c00330c070060608000e0808800706080006a
:102cac00f080880050618000008188009061800075
:102cbc00708188007081800010818800a061800084
:102ccc00b0808800b0618000c0808800c061800046
:102cdc00d0808800b1808000c0808000808040005f
:102cec00d080800080804000b0aa2a000008b80084
:102cfc000100d1003081880014d0bf008080fb001f
:102d0c0090808000808f5000160031002870ef00fa
:102d1c00b180800030818000808f5000030036002d
:102d2c0028d0bf000040e80028f0b700c180800028
:102d3c0030818000808f50000300360028d0bf0007
:102d4c0000c0e80028f0b700d180800030818000fe
:102d5c00808f50000300360028d0bf006440400034
:102d6c0028f0b7000080fa00000006000000fa000e
:102d7c006080800080004000a05222000080400053
:102d8c00100078008019880060808000800040006e
:102d9c00a05322000080400010007800301b8800f7
:102dac006080800080004000a05422000080400021
:102dbc0010007800e01c88001230ef00780b070040
:102dcc000000eb009a0b07000080fa0000000600e0
:102ddc000000fa00550a0700a20a070010808800bc
:102dec003180800020808000808040001080800036
:102dfc0080804000b0aa2a000008b8000100d10071
:102e0c003080880010808000208088003080800016
:102e1c008f010700502f8100808188000000eb009b
:102e2c007e0a0700340a070031808000d0828000bf
:102e3c008088b90080007800908828000008b800cd
:102e4c004508de0080808800308080008000d10042
:102e5c00808080000080500040808800408080008e
:102e6c00e10f50000300360040808000560b070035
:102e7c000200370010002000408088004080800055
:102e8c00510b07000000eb00690b0700370b070024
:102e9c000a30ef0070c0b3000ef0b7000030a9008c
:102eac0000808000620060000000e00005003a0035
:102ebc0000808000610060000000e0000100320032
:102ecc000b0007000f70ef00608080000000e8002e
:102edc006080880060808000e60f500002003600a1
:102eec0010002000608088000080fa0000000600be
:102efc000000fa0072818000032c21000391b900bc
:102f0c00441add004c10de0000007200cc98de008c
:102f1c0000007800800cb000508188006181800036
:102f2c0050818000808f50000e0032006181800043
:102f3c0050818000808f5000030031006081800040
:102f4c006a004000608188006181800050818000af
:102f5c00808f500003003600608180006a005000b2
:102f6c006081880061818000700c2000808f50008f
:102f7c0002003e00800c200060818800618180008e
:102f8c0080382100808f50000200360080382100ec
:102f9c006081880060818000701a880060818000e8
:102fac00201c880060818000d01d88000080fa0001
:102fbc00000006000200fa0000808000640060003f
:102fcc000000e0004b0032000000eb00000f780026
:102fdc00340037001e00780080004000207128006b
:102fec0000804000900078001e0078000001400036
:102ffc00a052220000004100010878001e00780059
:10300c008000400020722800008040009000780072
:10301c001e00780000014000a05322000000410077
:10302c00010878001e007800800040002073280002
:10303c0000804000900078001e00780000014000e5
:10304c00a054220000004100010878001e00780006
:10305c008000400020742800008040009000780020
:10306c001e00780000014000a05522000000410025
:10307c0001087800710020001e8050008000400084
:10308c002075280000804000900078001e00780019
:10309c0000014000a0562200000041000108780009
:1030ac001e0fe8001e007800e70f5000c9ff340027
:1030bc000000eb00000f780009003700f00320003f
:1030cc001e005000217628000080400090407800bf
:1030dc00a05722001e004000014878001e0fe80097
:1030ec00f00320009e007800808f5000f3ff340026
:1030fc004e0037000000eb00000f7800380037005e
:10310c00710020001e8050008000400020712800bb
:10311c0000804000900078001e0078000001400004
:10312c00a05222000000410001087800710020002c
:10313c001e8050008000400020722800008040005b
:10314c00900078001e00780000014000a05322007f
:10315c000000410001087800710020001e80500022
:10316c008000400020732800008040009000780010
:10317c001e00780000014000a05422000000410015
:10318c0001087800710020001e8050008000400073
:10319c002074280000804000900078001e00780009
:1031ac0000014000a05522000000410001087800f9
:1031bc00710020001e805000800040002075280007
:1031cc0000804000900078001e0078000001400054
:1031dc00a056220000004100010878001e0fe800f4
:1031ec001e007800e70f5000c5ff34000000eb0014
:1031fc00000f780009003700f00320001e0050007b
:10320c00217628000080400090407800a0572200d2
:10321c001e004000014878001e0fe800f00320005b
:10322c009e007800808f5000f3ff340032090700b5
:10323c000030a8000010a800003220006081880037
:10324c0000322000508188000a30ef0030c0b300fb
:10325c0014f0b700d00007006500070010c0b300e1
:10326c000ef0b700230037000ed0bf000080fb002b
:10327c0080004000a0522200008040001000780026
:10328c00801988000ed0bf000080fb008000400039
:10329c00a05322000080400010007800301b8800f2
:1032ac000ed0bf000080fb0080004000a054220024
:1032bc000080400010007800e01c880001003700fe
:1032cc000000000051808000c0828000808f500080
:1032dc000400310000808000620060000000e0000b
:1032ec00e1ff3a000a30ef000ed0bf000040e800ca
:1032fc000ef0b7000ed0bf00e64f5000f0ff3600c6
:10330c000030a900c08280000000e80050808800d6
:10331c000000eb001e000700770ea8000080fa00ea
:10332c00000006000000fa000030a9000010a900ff
:10333c001000200060818800fc0807000000eb00f2
:10334c00360907000430ef000630ef00140a0700be
:10335c000000eb00360a0700ba23ef00d01d8000f6
:10336c00201c8800201c8000701a88009038840073
:10337c008019880010398400301b88009039840033
:10338c00e01c8800770ea9000080fa0000000600ff
:10339c000400fa0010079800080037000000eb004a
:1033ac00000f7800010037001e0fe80070bb2000f2
:1033bc009e007800808f5000fbff36001e009000ae
:1033cc0000f0a7000000ea000000ea004f00de0059
:1033dc00004078009e0090008100e90011079800e1
:1033ec000004e000edff3a000080fa000000060047
:1033fc000200fa000000eb00000f78000800370014
:10340c009e0078006680400080004000a05b220097
:10341c00008040008000eb00010878001e0fe800df
:10342c001e007800ef0f5000f5ff36000000eb0097
:10343c00202e89006000b800302f8900412f8900b0
:10344c000000eb00502f89000080fa0000000600fd
:10345c000800fa0010079800d42d8100e52d81009a
:10346c001e009000cf80de000400400085804800e4
:10347c00d02d8900e12d890060808000e50f50007f
:10348c0043003a00d02d8100e12d8100000078002e
:10349c00102e8900142e810006a32100e7112000b4
:1034ac0026079800370798002e039000be03900063
:1034bc000500090044bbd800cf80de00f02d890048
:1034cc00012e89006000b800d02d8900e12d890003
:1034dc00242e8100f02d8100012e810080007800c7
:1034ec006600420000024000a05b22000000420087
:1034fc0001087800202e81000000e800202e8900b1
:10350c00202e8100ef0f5000020036000000eb006f
:10351c00202e89006000b800302f8900412f8900cf
:10352c000000eb00000f780016003700342f8100ec
:10353c00452f81009e037800668043008000400088
:10354c00a05b22000080400010007800cf80de00dd
:10355c000400400085804800302f8900412f8900ed
:10356c00302f8100412f81004c0add004401de0028
:10357c0002017200c489de0002007800502f89001d
:10358c001e0fe8001e007800ef0f5000e7ff36001a
:10359c000080fa00000006000000fa0060662200bd
:1035ac00802f8900f0282000902f8900e0fd270053
:1035bc00a02f8900e0fd2700b02f89000000eb0050
:1035cc00c02f89006000b800602f8900712f89001e
:1035dc000000eb00f02f89000080fa0000000600cc
:1035ec0021c0b30041409800b000900012c2b3005b
:1035fc00924098009000900001040100d04090008f
:10360c00d4c2b30084cf5000ba003600e1c2b3007c
:10361c0041409800300190008040eb00114198002f
:10362c003001900053c0b30023419800300190004a
:10363c00314198001183800021099000b000900066
:10364c00c24098001183800021099000b0009000c6
:10365c004811de00d2409800b0009000504190001c
:10366c00e2409800b000900002c1b300f240980014
:10367c00b000900022c8b30082489800b0009000bf
:10368c00e2c4b30092489800b0009000f2c6b300b8
:10369c00a2489800b000900067414100b2489800e1
:1036ac00b000900012c3b300c2489800b000900064
:1036bc0073c3b300d3489800b0009000e5c151002b
:1036cc00e3489800b002900001c3b300f14a98009f
:1036dc00b002900083529800b00190009151980074
:1036ec00b0019000a2519800300190003151980027
:1036fc00b000900032c3b300c2509800b0009000ec
:10370c000241e800d25098001183800031099000ea
:10371c000200e0007e00320031099000b000900001
:10372c0012417800e250980011838000310990001a
:10373c00b000900012419000f2509800118380006c
:10374c0031099000b00090002241900082589800fe
:10375c001183800031099000b0009000424190002c
:10376c00925898001183800031099000b0009000ad
:10377c0052419000a25898001183800031099000aa
:10378c00b000900072419000b258980011838000f4
:10379c0031099000b000900002499000c258980086
:1037ac001183800031099000b00090001249900004
:1037bc00d25898001183800031099000b00090001d
:1037cc0022499000e2589800118380003109900042
:1037dc00b000900032499000f2589800118380009c
:1037ec0031099000b000900042499000826098002e
:1037fc001183800031099000b00090006249900064
:10380c00926098001183800031099000b000900004
:10381c0072499000a26098001183800031019000e1
:10382c00b0009000b26098001183800041019000bc
:10383c00b0009000c260980011838000410190009c
:10384c00b00090004811de00d26098001183800017
:10385c0051019000e1019000b0009000e2609800ee
:10386c001183800051019000e1019000b0009000a4
:10387c00481add004811de0002017200c819de0092
:10388c00f26098001183800051019000e1019000da
:10389c00b000900083689800118380005101900063
:1038ac00e1019000b00090004819de009268980089
:1038bc0012838000cf91de00b0009000a2689800c7
:1038cc00b0009000c81ade00481bdd004812de0074
:1038dc0004027300b4689800b0009000c3689800ac
:1038ec00b00090004819de00d2689800900090005b
:1038fc000104010021c0b30041409800b0009000c9
:10390c0052c1b30092409800900090000104010055
:10391c00c1c0b3000181fb00b001900002814100e5
:10392c00645198008140e900e1cf4000baff3200b9
:10393c000181fb00b00190000281410064519800ac
:10394c008140e900e1cf4000f2ff3a00b2ff3700be
:10395c00881f780000047800b80090002142900085
:10396c00810378005740780012838000920278001f
:10397c000500e000880032004822dd000080fb00da
:10398c000002420095017800830f520013003200b0
:10399c000300e000080032006480420080027800de
:1039ac0090017800830f52000c003200640040003c
:1039bc000300e000f9ff3a0000c4b30021c0b300db
:1039cc0041449800804b78009800900008007800e3
:1039dc00010001004f047800000006000300e00025
:1039ec00f5ff320015009000a20190000300e000ea
:1039fc001a003200a20290008001eb00950f120019
:103a0c0012003200a2029000430020001500e000da
:103a1c0074003200a202900083824200950f1200c3
:103a2c000a003200a20290006483410083824200ab
:103a3c001500e0000500320086017800a20290001b
:103a4c0083824200950f1200f6ff3a00220290008a
:103a5c00030242001400e0003b003a009201900087
:103a6c000300e000650032001003780012029000a1
:103a7c008001eb00940f1300120032001202900030
:103a8c001400e0000f003200c3002000120290006e
:103a9c0003024200940f13000a003200120290003d
:103aac00ec824100030242001400e00005003200e9
:103abc00850178001202900003024200940f13005b
:103acc00f6ff3a0012029000030242001400e000dc
:103adc001300320012019000830141004841900014
:103aec0063415100e3804000c301900003000100da
:103afc000004e00030003a0021c0b30041449800bb
:103b0c00b800900090409800980090000800780051
:103b1c00010001004f04780000000600afff3700e1
:103b2c0020c0b3004044980010c4b300804b780010
:103b3c009800900008007800010001004f04780004
:103b4c0000000600a5ff3700220190008301410010
:103b5c004841900063415100e38040009301900084
:103b6c00030001000004e0009aff320020c0b30003
:103b7c00404498003800900021c4b30011409800d4
:103b8c009800900008007800010001004f047800b4
:103b9c000000060091ff370030c4b30021c0b30011
:103bac0041449800804b7800980090000800780001
:103bbc000100010087ff370020c0b300404498008b
:103bcc003800900041c1b30011409800980090005b
:103bdc0008007800010001004f0478000000060086
:103bec007eff37008001eb002202900003024200ae
:103bfc001400e00099ff3200d3ff370020c0b3005f
:103c0c004044980040c4b300804b7800980090006a
:103c1c0008007800010001004f0478000000060045
:103c2c006eff3700881f780000047800380390007e
:103c3c008680e8009142780056407800138380001b
:103c4c00130278000400e00053003200c82add00a3
:103c5c000080fb008082420014017800828f5200a9
:103c6c00130032000200e000080032006400420041
:103c7c000002780010017800828f52000c00320094
:103c8c00640040000200e000f9ff3a0000c4b300f9
:103c9c0021c0b30041449800004b7800980090007c
:103cac0008007800010001004f04780000000600b5
:103cbc000200e000f5ff32001400900013019000a8
:103ccc000200e0003c0032009003780013029000e8
:103cdc000001eb00948f13001200320013029000cd
:103cec001400e0000f003200c2002000130290000c
:103cfc0002024200948f13000a003200130290005b
:103d0c00ec024100020242001400e0000500320007
:103d1c00050178001302900002024200948f1300f8
:103d2c00f6ff3a0013029000020242001400e00079
:103d3c000f0032009301900002814100320190008b
:103d4c000200010000c0e8004044980038009000d8
:103d5c008040eb001140980098009000080078001b
:103d6c00010001004f04780000000600d0ff37006e
:103d7c0020c0b3004044980010c4b300004b78003e
:103d8c009800900008007800010001004f047800b2
:103d9c0000000600c6ff370030c4b30021c0b300da
:103dac0041449800004b780098009000080078007f
:103dbc0001000100bcff370020c0b3004044980054
:103dcc0040c4b300004b78009800900008007800c5
:103ddc00010001004f04780000000600b4ff37001a
:103dec00b000900051417800e24f51003800320091
:103dfc000c003600e44f51003f0032001e00310031
:103e0c003300200012838000330198000041eb0046
:103e1c008248780021c0b300414098009000900087
:103e2c00010401000204e0000a003a008001eb00ea
:103e3c0012838000330198000041eb008248780027
:103e4c0021c0b30041409800900090000104010093
:103e5c00f4ff3700e14f51001300320022c2b300cf
:103e6c008248780021c0b300414098009000900037
:103e7c0001040100ebff3700e54f5100f7ff3a005a
:103e8c005300200012838000330198000041eb00a6
:103e9c008248780021c0b300414098009000900007
:103eac0001040100dfff37001300200012838000a3
:103ebc00330198000041eb008248780021c0b30028
:103ecc00414098009000900001040100d5ff37009c
:103edc002300200012838000330198000041eb0086
:103eec008248780021c0b3004140980090009000b7
:103efc0001040100cbff3700430020001283800037
:103f0c00330198000041eb008248780021c0b300d7
:103f1c00414098009000900001040100c1ff37005f
:103f2c00b00090000041eb0092409800118380009b
:103f3c0031019000b0009000a240980031c0b30055
:103f4c0041409800900090000104010022c0b30091
:103f5c004240980030019000114198009000900070
:103f6c00010401006165220063032000818141008e
:103f7c0062af210082287800838f5000fdff3a0049
:103f8c00816522004100980000000600400090006e
:103f9c0041b021000108780061f92100110098005e
:103fac0061ef210021009800e1ca21002110980046
:103fbc0081e1210011109800000006001100200082
:103fcc00110898008000eb00010898000000060022
:103fdc00e4874700889fbe008a9fbe008c9fbe006e
:103fec008e1f780000047800980c90005ac5b3001e
:103ffc003b002000e18f540015003a00580090005f
:10400c00b0009000010001000004e0002300320029
:10401c0008089000e20f50000801320058003e00e2
:10402c000000e000a0003a004a5498005054980058
:10403c0058009000100178008a40780002000100be
:10404c00090c9800980c9000e18f5400ebff3200a3
:10405c000900e00014003a0058009000a000900005
:10406c00010001000004e0000f0032005800900035
:10407c009000900001000100f8009000e28f5000c9
:10408c00b800320017003e000100e00064003a0066
:10409c0051c5b300814f50001c013200980c9000a8
:1040ac000900e000ecff32006a0644001083800037
:1040bc00c00890000100e00004003200c00890002d
:1040cc00a1189000e48f50004e0132004f07780089
:1040dc004f06be004f05be004f04be004f00b1009e
:1040ec0000000600e48f5000810032008600390089
:1040fc00e58f5000040032000000eb0070049800c3
:10410c00980c9000e6ff3700c850900052c5b300e1
:10411c0082cf500011003200e2cf50000f0032006d
:10412c00814f500011003a00380090001040780088
:10413c00fa4f5000fa003e000080fb00c8009000cf
:10414c0000004000008040009000780008007800db
:10415c0001000100980c9000d1ff370081c0ea00eb
:10416c0041549800814f5000efff320031c1b30031
:10417c000800780075ff0700980c9000c8ff370006
:10418c00e40f5000860032008d003900e50f50001e
:10419c00050032000000eb00100c98007004980031
:1041ac0080047800acff3700c850900050c5b300b5
:1041bc0080cf50000d003200e2cf50000b003200d7
:1041cc005800900010017800020001005800900087
:1041dc00d0009000010001000000eb00100c9800d2
:1041ec0070049800800478009bff370081c0ea00bf
:1041fc004154980058009000100178000200010012
:10420c0058009000d0009000010001000000eb006d
:10421c00100c980070049800800478008eff370012
:10422c00e18f5000b4ff3a000004e0001b003200a4
:10423c00d8409000814f5000de003e0052c5b300c4
:10424c0082404000415498004044980059549800d2
:10425c00210020007104980082407800814f5000aa
:10426c0002003200e24f50008cff3a0052f0b700cf
:10427c0020002000808288004000200070049800fc
:10428c00980c900086ff370051c5b3002205210021
:10429c0012417800814f5100ce0032007904980011
:1042ac00980c90007eff3700e10f5000b9ff3a00e8
:1042bc00c840900048509000014040004054980085
:1042cc005800900010017800020001004840900056
:1042dc008a4f500086003200e24f500084003200ba
:1042ec0020002000000c9800980c900041ff370033
:1042fc000004e000e4ff3a00808280007004980023
:10430c00980c900066ff3700c850900080c04000a9
:10431c0041549800d85090008180fb0038019000e7
:10432c008100410080487800d85090008140e8001e
:10433c00515498004841900082cf50004e003900f3
:10434c0051c5b300814f50007a003200e24f50004b
:10435c00780032005000200070049800980c9000f7
:10436c004fff3700c848900080cf5000cbff3a0079
:10437c0048509000014040004054980050c5b30094
:10438c0080cf500083003200e2cf50008100320019
:10439c003000200070049800980c900040ff37000b
:1043ac0058009000100178008040eb0002000100e2
:1043bc0080828000000c9800980c90000dff370054
:1043cc00d85090008180fb003800900081004000a4
:1043dc004850900011404000405498005800900004
:1043ec00100178009140780002000100d850900034
:1043fc000180fb008001e800484190000281fb0035
:10440c00828f5100280035003801900000004100d7
:10441c00104078008a4f500055003200e24f500097
:10442c005300320050002000000c98008140e8003e
:10443c0051549800980c9000eefe3700c84890003c
:10444c0048509000014040004054980058009000a3
:10445c001001780002000100484890008a4f50007b
:10446c001d003200e24f50001b0032000b0c980074
:10447c00980c9000dffe370051c5b300814f5000ff
:10448c0002003200e24f5000c1ff3a0052f0b70078
:10449c0030002000808288004000200070049800ca
:1044ac00980c9000fefe370038019000000041008f
:1044bc00104078008a4f500025003200e24f500027
:1044cc00230032000b0c98008140e80051549800f6
:1044dc00980c9000c7fe370052f0b7008b82880012
:1044ec0040002000000c9800980c9000c1fe370092
:1044fc0052f0b7002000200080828800400020008d
:10450c00000c9800980c9000bafe370040549800ac
:10451c001000200070049800980c9000e0fe37000a
:10452c0011c2b3000800780088fe0700980c9000b8
:10453c00dbfe370052f0b70050002000808288006c
:10454c004000200070049800980c9000d4fe3700b6
:10455c0052f0b7008b82880040002000000c9800bd
:10456c008140e80051549800980c9000a1fe37004f
:10457c0052f0b700500020008082880040002000dc
:10458c00000c98008140e80051549800980c900061
:10459c0098fe3700200521000148780030002000eb
:1045ac00808288004000200070049800980c9000d5
:1045bc00bbfe370079049800380090000048eb00ef
:1045cc0051c1b3000800780060fe0700980c900001
:1045dc00b3fe3700d8409000814f5000f5ff3e00ed
:1045ec0052c5b300824040004154980040449800aa
:1045fc00595498002000200070049800980c9000ea
:10460c00a7fe370040089000a0c490008984fb00ee
:10461c00e384440058009000c000900001000100a9
:10462c000080fb00808f540007003d001083800049
:10463c0040099000c008900072199000e118900099
:10464c00810f51000d003100a0828000b1828000ea
:10465c0061004000e0804800a0828800b1828800a0
:10466c004f0778004f06be004f05be004f04be003a
:10467c004f00b100000006009afe37004008900081
:10468c008000eb0071189800580090001001780021
:10469c0021c0b3000200010058009000118380007b
:1046ac00c1089000a1c09000100178000200010028
:1046bc0058009000c84890001001780002000100da
:1046cc005800900011838000c10890008120900058
:1046dc001001780002000100580090001183800046
:1046ec00c108900081209000c808de0010017800fd
:1046fc000200010010838000c0099000c0089000e7
:10470c004009900023c29000c849900083414200a8
:10471c0083c1e8008120900081c0410092c59000c7
:10472c0081c545000007eb008004eb008e00e8001b
:10473c0081bf9f00720747008186400040089000af
:10474c000d00400010804400104578001c007800db
:10475c00100178008a407800020001008ac54500eb
:10476c008904e80010838000c00890008e8040000f
:10477c009180fb00818f5400f0ff39000fbf970030
:10478c00c0089000b17890008180fb00810f570029
:10479c00e5ff3900e2cf55000b00320058009000c5
:1047ac00100178008b407800020001004f07780060
:1047bc004f06be004f05be004f04be004f00b100b7
:1047cc000000060047fe3700dbcfb3005800900016
:1047dc00100178008b40780002000100f3ff3700d5
:1047ec00310098005240980043489800e1fe2100a7
:1047fc000108780041fe2100110098008000eb00b8
:10480c00110898007100980000000600881f7800bd
:10481c0000047800380190008280e8009181fb0050
:10482c00c819dd00124090000080fb0000804100a0
:10483c001003780013838000130290000001eb003a
:10484c00940f130012003200130290001400e000c9
:10485c000f003200c200200013029000020242003e
:10486c00940f13000a00320013029000ec02410076
:10487c00020242001400e00005003200050178003d
:10488c001302900002024200940f1300f6ff3a004c
:10489c0013029000020242001400e0000e003200ed
:1048ac00930190000281410032019000020001004e
:1048bc0000c0e80040449800380090008040eb00b5
:1048cc001140980098009000080078000100010049
:1048dc004f0478000000060011c4b30008007800f3
:1048ec009afd07004f04780000000600faff37001d
:1048fc00881f780000047800b800900021419000d7
:10490c004811dd00114090000080fb0000004100c8
:10491c001003780013838000130290000001eb0059
:10492c00940f130012003200130290001400e000e8
:10493c000f003200c200200013029000020242005d
:10494c00940f13000a00320013029000ec02410095
:10495c00020242001400e00005003200050178005c
:10496c001302900002024200940f1300f6ff3a006b
:10497c0013029000020242001400e0001800320002
:10498c0093019000828141004841900063415100a5
:10499c00e3804000c3019000030001000004e0002c
:1049ac0009003a0021c0b30041449800b8009000bf
:1049bc0090409800980090000800780001000100d9
:1049cc004f0478000000060041c1b30008007800d5
:1049dc005efd07004f04780000000600faff370068
:1049ec0011c4b3000800780058fd07004f0478008c
:1049fc0000000600f4ff3700881f7800300190009b
:104a0c0002047800b2429000424390000582fb0001
:104a1c008483e800d04190008381fb0051c1b30036
:104a2c00838f53000c003e00a2419000c819dd009a
:104a3c00924090008180fb0081814100e24f530045
:104a4c0008003200e44f53003300320041c1b30080
:104a5c00e14f5300250032003cfd07004f04780065
:104a6c00000006000400e000170032008000eb009c
:104a7c008180e80001014100134978003001900069
:104a8c0001014100330378004833de0016419800e1
:104a9c00810f52000b003600300190008180e8003d
:104aac0001014100134978003001900001014100df
:104abc00330378004833de0016419800810f520012
:104acc00f5ff3e003004900085c2e8004540980098
:104adc008040eb0011449800900090000100010010
:104aec004f04780000000600deff37000400e000f1
:104afc00f5ff32008000eb000101410033437800e8
:104b0c00264198008100e800810f5200edff36002d
:104b1c0030019000f8ff37000400e000eaff32009b
:104b2c008000eb00010141001344780028419800fb
:104b3c0030019000010141001303be00483cdd0030
:104b4c004833de0006037400c83bde003641980093
:104b5c00e4804000300190000101410023439000ab
:104b6c000649780030019000010141003344900067
:104b7c0018419800e4814100810f5200d1ff3600aa
:104b8c0030019000e7ff3700889fbe008a1f780035
:104b9c0000057800ba0490008902780099439000cf
:104bac0029429000ca419000e4c151003941900063
:104bbc008381fb000283fb00050009008681d8007d
:104bcc00010378000600e00009003a004822dd00ed
:104bdc008783fb0007024200e24f51004b0032007a
:104bec00e44f510008003200e14f51002e0032001a
:104bfc0041c1b3000a007800d4fc07004f057800cf
:104c0c004f04be0000000600c219de001b0032007b
:104c1c00e48044000001eb000201e8001144900024
:104c2c000884fb008004eb00484bdd00c843de0029
:104c3c00870373004843dd00214490008884fb0007
:104c4c00080020000604440087844c001183fb00fc
:104c5c008003eb000804430089844b00314390002f
:104c6c00c833dd0006002000061a4400079a4c00e9
:104c7c00e4804000830f5100e7ff390021c0b300ee
:104c8c00414598008040eb00914298009a009000ba
:104c9c000a007800010001004f0578004f04be00a7
:104cac0000000600d8ff37000300e000f3ff3200dd
:104cbc000001eb0082804400c1409000015a780052
:104ccc000201e800830f510007003100ba04900084
:104cdc0082804400c1409000015a78000201e80033
:104cec00830f5100f9ff3900ba02900021c0b300c4
:104cfc00414598008040eb00914298009a0090004a
:104d0c000a00780001000100e3ff37008301d100a5
:104d1c00daff3200e48044000001eb009143900084
:104d2c00c83bdd001183fb00069a43000201e8003a
:104d3c008180e800828f5100d0ff360091439000b3
:104d4c00c83bdd001183fb00069a43000201e8001a
:104d5c008180e800828f5100f0ff3e00c7ff3700d2
:104d6c00400090002150220011089800c140220000
:104d7c0071009800e147220001089800000006002d
:104d8c0040009000a15c2200210898000000060061
:104d9c000000fa00002bef000006200010588800dd
:104dac00042bef00f000200030588800082bef0097
:104dbc000a2bef000c2bef004000200070588800ed
:104dcc00102bef00122bef00142bef00162bef0023
:104ddc00202bef000034200010598800382bef00f6
:104dec00402bef00482bef00502bef003a2bef003d
:104dfc00422bef004a2bef00522bef003c2bef0025
:104e0c00442bef004c2bef00542bef003e2bef000c
:104e1c00462bef004e2bef00562bef0000402000ee
:104e2c00505b880000402000705b88000040200030
:104e3c00905b880000402000b05b8800a02bef0046
:104e4c00a42bef00a82bef00ac2bef00d02bef0026
:104e5c00d22bef00d42bef00d82bef00003020002a
:104e6c00b05e880000302000d05e8800f02bef0090
:104e7c00f22bef00022cef00a06421005b00070076
:104e8c008080220063000700c08322007b000700a3
:104e9c00e086220092000700008a2200a900070089
:104eac00408d2200c1000700808e2200c90007003f
:104ebc00c08f2200d100070000912200d90007000a
:104ecc0020942200f00007000b48a9002b48a800f2
:104edc000e28a9002e28a8001808a9003808a80038
:104eec001828a9003828a8001160800000f02000c4
:104efc00010070001060880001eba8002d00070075
:104f0c00160007002000070040402000005c8800cd
:104f1c00822bef00842bef00862bef00882bef0009
:104f2c008a2bef008c2bef0000402000705c880077
:104f3c00902bef0000402000905c88004040200047
:104f4c00a05c880040002000b05c8800101020009d
:104f5c00c05c88000080fa00000006000000fa0027
:104f6c00000ca80000000000016080000010200070
:104f7c00008060000000e000fbff32000a0ba8007c
:104f8c000080fa00000006000000fa00002ca800c7
:104f9c000000000001608000002020000080600004
:104fac000000e000fbff32000a2ba8000080fa0092
:104fbc00000006000000fa0000eca8000000000051
:104fcc000160800000002800008060000000e0000c
:104fdc00fbff32000aeba8000080fa00000006007c
:104fec000000fa000080fa00000006000200fa003f
:104ffc00000f78001e007800a08188000080fa0065
:10500c00000006000200fa00000f78000080fa0091
:10501c00000006000200fa00000f78001e00780065
:10502c00b08188000080fa00000006000200fa003f
:10503c008159800000002800008060000000e00022
:10504c000800320051618000010f7800b0818000af
:10505c000000e00003003200b18180001e007800e7
:10506c00010001000080fa00000006000200fa00b6
:10507c00000f78000080fa00000006000200fa0021
:10508c00000f78001e007800c08188000080fa00b4
:10509c00000006000200fa009059800068006000d1
:1050ac000000e0000800320091618000010f7800e0
:1050bc00c08180000000e00003003200c18180004c
:1050cc001e007800010001000080fa0000000600bc
:1050dc000200fa00000f78000080fa0000000600c1
:1050ec000200fa00000f78001e007800d0818800c2
:1050fc000080fa00000006000200fa0090598000bf
:10510c00700060000000e00008003200a161800027
:10511c00010f7800d08180000000e0000300320015
:10512c00d18180001e007800010001000080fa008f
:10513c00000006000200fa00000f78000080fa0060
:10514c00000006000200fa00000f78001e00780034
:10515c00e08188000080fa00000006000200fa00de
:10516c009159800000022000008060000000e000e7
:10517c0008003200b1618000010f7800e0818000ee
:10518c000000e00003003200e18180001e00780086
:10519c00010001000080fa00000006000200fa0085
:1051ac00000f78000080fa00000006000200fa00f0
:1051bc00000f78001e007800f08188000080fa0053
:1051cc00000006000200fa00000f78000080fa00d0
:1051dc00000006000200fa00000f78001e007800a4
:1051ec00008288000080fa00000006000200fa002d
:1051fc00000f78000080fa00000006000200fa00a0
:10520c00000f78001e007800108288000080fa00e1
:10521c00000006000200fa00000f78000080fa007f
:10522c00000006000200fa00000f78001e00780053
:10523c00208288000080fa00000006000200fa00bc
:10524c0080598000610060000000e000080032001e
:10525c0061608000010f7800208280000000e00077
:10526c0003003200218280001e0078000100010042
:10527c000080fa00000006000200fa00000f78001f
:10528c000080fa00000006000200fa00000f78000f
:10529c001e007800308288000080fa0000000600b2
:1052ac000200fa0080598000620060000000e000fb
:1052bc000800320071608000010f7800308280009d
:1052cc000000e00003003200318280001e007800f4
:1052dc00010001000080fa00000006000000fa0046
:1052ec000023ef000223ef000423ef000623ef005e
:1052fc000823ef0070382100501888000c23ef00b1
:10530c000e23ef001023ef001223ef001423ef0005
:10531c001623ef001823ef001a23ef001c23ef00d5
:10532c001e23ef002023ef002223ef002423ef00a5
:10533c002623ef002823ef000000240060198800ca
:10534c0000002400101b880000002400c01c8800f2
:10535c002e23ef006423ef009a23ef003023ef009d
:10536c006623ef009c23ef00c000200090198800fa
:10537c00c0002000401b8800c0002000f01c8800ea
:10538c0080102000a019880080002000501b88008d
:10539c0080002000001d88003623ef006c23ef00f6
:1053ac00a223ef003823ef006e23ef00a423ef00bd
:1053bc003a23ef007023ef00a623ef003c23ef000d
:1053cc007223ef00a823ef003e23ef007423ef00bd
:1053dc00aa23ef004023ef007623ef00ac23ef006d
:1053ec004223ef007823ef00ae23ef004423ef00bd
:1053fc007a23ef00b023ef004623ef007c23ef006d
:10540c00b223ef004823ef007e23ef00b423ef001c
:10541c004a23ef008023ef00b623ef004c23ef006c
:10542c008223ef00b823ef004e23ef008423ef001c
:10543c00ba23ef005023ef008623ef00bc23ef00cc
